:020000040800F2
:10000000008000200D330008F92D0008FB2D0008AA
:10001000FD2D0008FF2D0008012E00080000000043
:10002000000000000000000000000000032E000897
:10003000052E000800000000072E0008092E000809
:100040005D3300085D3300085D3300085D33000850
:100050005D3300085D3300085D3300085D33000840
:100060005D3300085D3300085D3300085D33000830
:100070005D3300085D3300085D3300085D33000820
:100080005D330008000000005D3300085D330008A8
:100090005D3300085D3300085D3300085D33000800
:1000A0005D3300085D3300085D3300085D330008F0
:1000B0005D3300085D3300085D3300085D330008E0
:1000C0005D3300085D3300085D3300085D330008D0
:1000D0005D3300085D3300085D3300085D330008C0
:1000E000112E00085D3300085D3300085D33000801
:1000F0005D3300085D3300085D3300080000000038
:10010000000000005D330008000000005D330008BF
:100110005D330008000000001D2E00085D3300085C
:100120005D3300085D3300085D3300085D3300086F
:100130005D33000800000000000000005D3300088F
:100140005D3300085D33000800000000000000007F
:10015000000000000000000000000000000000009F
:100160000000000000000000000000005D330008F7
:100170005D330008000000000000000000000000E7
:10018000000000005D3300080000000000000000D7
:10019000000000000000000000000000000000005F
:1001A00000000000000000005D3300085D3300081F
:1001B0005D3300085D3300085D3300080000000077
:1001C000000000005D330008000000000000000097
:0801D0005D3300085D330008F7
:1001D80010B5054C237833B9044B13B10448AFF379
:1001E80000800123237010BD0C00002000000000D7
:1001F800B833000808B5034B1BB103490348AFF3F4
:10020800008008BD0000000010000020B83300087E
:10021800104B1B680BB90120704710B504464FF40A
:100228007A70B0FBF3F30C4A1068B0FBF3F000F0FF
:1002380053FD68B90F2C01D901200AE0002221469C
:100248004FF0FF3000F006FD024B5C60002000E03C
:10025800012010BD000000200800002010B5032078
:1002680000F0E6FC0020FFF7D3FF10B10124204680
:1002780010BD044602F09CFDF9E70000034A13682C
:10028800034909680B441360704700BF68010020E8
:1002980000000020014B1868704700BF680100206B
:1002A80030B583B000230193002800F0178104467D
:1002B800C36D03B323689A6812F0005F05D09A688B
:1002C80022F0204222F03F029A602268936813F0DD
:1002D800805F1DD1936823F0104323F03F0343F060
:1002E800805393607E4B1B689B097E4AA2FB0323C5
:1002F8009B09019309E002F0A7FA0023236684F81A
:100308005830D7E7019B013B0193019B002BF9D1A2
:1003180023689A6812F0805F40F09E80E26D42F098
:100328001002E265226E42F00102226601209A68FC
:1003380012F0040F00F092800121E26D12F0100F0C
:1003480040F0C580002940F0C280E26D22F481723D
:1003580042F00202E2659B6813F0010F15D14FF0DD
:10036800A0439B6813F0010F7AD001225E4B9B6873
:1003780013F0010F76D00123134306D163685B495C
:100388008A6822F47C1213438B60627FE36B43EA32
:100398004233E2681343A268134394F8242043EAE3
:1003A8000243012A60D0E26A22B102F47872216B1A
:1003B8000A4313432168CD684D4A2A401343CB6052
:1003C8002268136923F04063616B0B431361236850
:1003D8009A6812F0040F4CD001219A6812F0080FA5
:1003E80049D0012249BB42BB217F94F838205200F2
:1003F80042EA8131DA6822F4804222F002020A439A
:10040800DA602369002B38D02268136943F48033FB
:1004180013612268D2F8C03023F47F5323F03F03DE
:1004280021690B43C2F8C03094F84030012B33D017
:100438002268136923F0010313616369012B3DD01E
:100448002268136B23F00F031363E36D23F0030398
:1004580043F00103E3653FE0002068E700216CE713
:10046800002283E7002387E7A26A013A43EA42436E
:1004780099E70021B1E70022B4E72268136923F461
:10048800803313612268D2F8C03023F47F5323F0FD
:100498003F03C2F8C030C7E721680B6923F4FF6344
:1004A80023F00403626CA56C2A43E56C2A43256D8E
:1004B8002A43134343F001030B61BEE721680B6B2A
:1004C80023F00F03226A013A13430B63BDE7E36D80
:1004D80043F01003E365012003B030BD0120FBE7C2
:1004E80008000020632D3E05000100500003005065
:1004F8000740F0FFF0B482B00022019290F8582033
:10050800012A00F036820346012280F85820066846
:10051800B06810F0040F0AD0DA6D42F02002DA65F4
:100528000120002283F8582002B0F0BC70474D68C3
:100538000C6830362A0A920002F00C02B05805F016
:100548001F051F27AF4020EA0700C4F38464AC40AE
:100558002043B0501A68906810F0040F00F08F80A4
:100568000120946814F0080F00F08B800125002802
:100578004ED1002D4CD18C68B4F1004F00F083802F
:100588000F681432780E800000F004001658C7F384
:1005980004574FF0070C0CFA07FC26EA0C06BC407F
:1005A800344314501868426922F0004242614A6993
:1005B8001C68E068C0F3C100400002FA00F00E6950
:1005C800042E78D0603454F82670BD4A3A400F683B
:1005D80007F0F8473843024342F0004244F8262027
:1005E8001A680E698869603252F8264024F08074CF
:1005F800204342F8260018680C690A7F012A57D060
:10060800603050F8242022F000722A4340F8242059
:100618001868826812F0010F16D10A68CD68D0F800
:10062800B040C2F3120624EA060405F01806A54DE8
:10063800F5402A40C2F312022243C0F8B020C8682D
:10064800A14A904200F093800A68A0490A4200F04B
:1006580088819F49896801F0E0709E4CA24200F0B1
:1006680024819D4CA24200F020819C4CA24200F0C3
:1006780055819B4CA24200F06381002051E7002085
:100688006FE7002573E70C681432600E800000F0F5
:1006980004001658C4F30454072707FA04F426EA9A
:1006A800040414501868426942F0004242617EE72F
:1006B8004FF00075A4E7226E206EC0F384600A68CC
:1006C800C2F3120585BBC2F38462904231D01C6824
:1006D800626E606EC0F384600A68C2F312056DBB77
:1006E800C2F3846290422ED01C68A26EA06EC0F342
:1006F80084600A68C2F3120555BBC2F38462904253
:100708002BD01C68E26EE06EC0F384600A68C2F306
:1007180012053DBBC2F3846290427FF479AFE26E6A
:1007280022F00042E26673E792FAA2F2B2FA82F28B
:10073800CBE7226E22F000422266C8E792FAA2F2C4
:10074800B2FA82F2CEE7626E22F000426266CBE72E
:1007580092FAA2F2B2FA82F2D1E7A26E22F0004235
:10076800A266CEE792FAA2F2B2FA82F2D4E71D6844
:100778000A68C2F3120696BB900E013000F01F0003
:1007880009288CBF00200120002852D09EBB940E5F
:100798000134A40604F0F844B6BB900E013000F012
:1007A8001F070120B8400443C6BB920E013202F075
:1007B8001F0202EB4202120522438C681435500EC8
:1007C800800000F004002E58C2F304520727974017
:1007D80026EA070604FA02F232432A5034E792FA6C
:1007E800A2F0B0FA80F0013000F01F0009288CBF99
:1007F80000200120C8E792FAA2F4B4FA84F4013484
:10080800A40604F0F844C7E792FAA2F0B0FA80F020
:10081800013000F01F070120B840C4E792FAA2F2A5
:10082800B2FA82F2013202F01F0202EB4202120512
:10083800C2E7CEB9940E0134A40604F0F844E6B930
:10084800900E013000F01F070120B8400443F6B9AC
:10085800900E013000F01F0000EB40021E3A120516
:1008680042F000722243A8E792FAA2F4B4FA84F4A0
:100878000134A40604F0F844E1E792FAA2F0B0FAD1
:1008880080F0013000F01F070120B840DEE792FA3F
:10089800A2F0B0FA80F0013000F01F0000EB400237
:1008A8001E3A120542F00072DCE711F4000F7FF4E3
:1008B800DCAE1A68B2F1A04F14D0002031E600BFB8
:1008C80000F0FF03FFFF070000007F4000000880E2
:1008D80000030050000021C31000C090000052C760
:1008E800000084CB40F4000023498A6822F0E072BB
:1008F80010438860214A126892092149A1FB02121B
:10090800920902EB42029100019102E0019A013A38
:100918000192019A002AF9D1002002E611F0807FA5
:100928007FF4A7AE1968174A91421CD040F0807036
:1009380011498A6822F0E072104388600020F0E5CF
:1009480011F4800F11D119680E4A91420FD040F46A
:1009580080020948816821F0E0710A438260002022
:10096800DFE50020DDE50020DBE50020D9E50020FB
:10097800D7E50220D8E500BF00030050080000209A
:10098800632D3E050001005038B503689A6812F0DF
:10099800010F3DD199681F4A114209D0C36D43F038
:1009A8001003C365036E43F001030366012030E0C2
:1009B80004469A6822F0004222F03F0242F0010207
:1009C8009A60FFF767FC054604E0FFF763FC401BED
:1009D800022811D823681A6812F0010F16D19A68F4
:1009E80012F0010FF1D19A6822F0004222F03F0282
:1009F80042F001029A60E8E7E36D43F01003E36513
:100A0800236E43F001032366012002E0002000E08A
:100A1800002038BD3F00008038B53B4B9D68036817
:100A28009B6813F0040F6AD105F01F0590F8583041
:100A3800012B67D00446012380F85830FFF7A4FF44
:100A48000346002857D1E26D22F4706222F00102B9
:100A580042F48072E26522682C498A422FD01146FE
:100A68008A4200D01DB9E16D21F48011E165E16D84
:100A780011F4805F26D0216E21F0060121661C2129
:100A88001160002284F858202168204A91421CD025
:100A98000A4691421CD0DDB1052D19D0092D17D079
:100AA800E16D41F48011E165D26812F0007F27D032
:100AB800E26D22F4405242F48052E26520E04FF0A9
:100AC800A041CDE700212166D9E74FF0A042E0E739
:100AD800CA6812F0007F05D0E26D22F4405242F459
:100AE8008052E2658A6822F0004222F03F0242F01A
:100AF80004028A6004E0002284F8582000E00223FF
:100B0800184638BD0223FBE70003005000010050DF
:100B180090F85820012A00F0848030B49CB0034635
:100B2800012280F858200268B2F1A04F39D0002085
:100B380001900198002837D0806810F0040F3CD04D
:100B48000120926812F0040F5CD100285AD10A687B
:100B5800002A38D0344CA26822F46042486893F8DE
:100B6800385040EA45300243A2604FF0A0429268F4
:100B780012F0010F23D001222C48806810F0010FD9
:100B88001FD00120024348D1274CA26822F4716289
:100B980022F00F020868896801430A43A260002016
:100BA80035E022480190C4E7DA6D42F02002DA65A8
:100BB800002283F8582001202CE00020C1E7002201
:100BC800DAE70020DEE71848816821F46041816097
:100BD8004FF0A041896811F0010F11D0012113488D
:100BE800806810F0010F00D001220A4317D10E4986
:100BF8008A6822F4716222F00F028A60002006E0FF
:100C08001146ECE7DA6D42F02002DA650120002295
:100C180083F858201CB030BC70470020F7E700204C
:100C2800F5E70220704700BF0003005000010050A4
:100C3800074AD36823F4E0631B041B0C000200F48A
:100C4800E060184340F0BF6040F40030D060704767
:100C580000ED00E030B4174BDB68C3F30223C3F1A7
:100C68000704042C28BF04241D1D062D18D9033B96
:100C78004FF0FF3505FA04F421EA0401994005FA1A
:100C880003F322EA0303194300280BDB0901C9B265
:100C980000F1604000F5614080F8001330BC7047F7
:100CA8000023E5E700F00F000901C9B2024B19540F
:100CB800F4E700BF00ED00E014ED00E0002807DBDA
:100CC80000F01F02400901239340024A42F82030F5
:100CD800704700BF00E100E00138B0F1807F0AD220
:100CE800064B5860064AF02182F8231000209860CD
:100CF80007221A6070470120704700BF10E000E02B
:100D080000ED00E0F0B583B0002336E0052400E0F4
:100D18000024B4403C4302355E4E46F825405E4C04
:100D28002568D44304EA05064F6817F4803F01D0CC
:100D380042EA0506584D2E606D6804EA05064F68BC
:100D480017F4003F01D042EA0506534D6E60AD68C6
:100D580004EA05064F6817F4801F01D042EA050629
:100D68004D4DAE60ED682C404E6816F4001F01D062
:100D780042EA0504484AD46001330A6832FA03F4A7
:100D880000F0868001249C402240F5D04D686E1EFC
:100D9800012E03D9112D01D0122D12D186685F00C2
:100DA8000325BD4026EA0506CD68BD40354385606C
:100DB800466826EA04064D68C5F300149C4034438F
:100DC8004460C5685F000324BC40E44325408E6846
:100DD800BE402E43C6604D68022D01D0122D13D19E
:100DE800DE08083650F826E003F007054FEA850CC0
:100DF8000F2505FA0CF52EEA050E0D6905FA0CF516
:100E080045EA0E0540F8265005682C404D6805F067
:100E18000305BD402C4304604C6814F0805FABD0E0
:100E28001E4C256E45F001052566246E04F001046C
:100E38000194019C9D08AE1C164C54F8267003F0D2
:100E48000304A6000F24B44027EA0407B0F1904F2A
:100E58003FF45EAF124CA04212D004F58064A04269
:100E680010D004F58064A0420ED004F58064A0423E
:100E78000CD004F58064A0423FF448AF062448E74C
:100E8800012446E7022444E7032442E7042440E718
:100E980003B0F0BD00000140000401400010024012
:100EA800000400480369194201D10020704701205D
:100EB80070470AB9816270478161704708B5054B70
:100EC8005B69034200D108BD024B586101F0CCFFB9
:100ED800F9E700BF00040140002800F0858010B544
:100EE80082B0044690F83A30DBB2052B7ED090F8F9
:100EF8003A30DBB2022B7CD0404B1A6E42F0010232
:100F08001A661B6E03F001030193019B90F83A30B7
:100F18000BB980F83930204601F0EEFEA368402B6B
:100F280025D0602B23D02268136823F01003E16AD0
:100F38000B43136021680B68314A1A406368A06844
:100F48000343E068034320690343207D012848D018
:100F580000200343606A0343A06A0343206B43EA0B
:100F6800C043606B43EA006313430B6020E02268D0
:100F7800136823F01003E16A0B43136021680B68C0
:100F88001F4A1A406368A068034320690343207D11
:100F9800012823D000200343606A0343A06A034367
:100FA800206B43EAC043606B43EA006313430B6062
:100FB80021688B69002B09DB8B6923F03F03A26949
:100FC800E0690243206A024313438B6194F83A3084
:100FD8008BB9012384F83A30002008E04FF4807080
:100FE800D9E74FF48070B4E701207047012002B0C0
:100FF80010BD0120FBE70020F9E700BF0010024008
:10100800113E00E0002838D13E4B1B6803F4C06352
:10101800B3F5806F08D03B4AD2F8803023F4807350
:10102800C2F8803000207047364AD2F8803023F466
:101038008073C2F88030136823F4C06343F40073EC
:101048001360314B1A68322303FB02F32F4AA2FBC9
:1010580003239B0C013300E0013B2A4A526912F436
:10106800806F01D0002BF7D1264B5B6913F4806F9A
:1010780001D10020704703207047B0F5007F08D0E9
:10108800204A136823F4C06343F48063136000208C
:1010980070471C4B1B6803F4C063B3F5806F08D01E
:1010A800184AD2F8803043F48073C2F880300020A8
:1010B8007047144AD2F8803043F48073C2F8803005
:1010C800136823F4C06343F4007313600E4B1A686B
:1010D800322303FB02F30D4AA2FB03239B0C0133CB
:1010E80000E0013B074A526912F4806F01D0002BDF
:1010F800F7D1044B5B6913F4806F01D1002070476E
:1011080003207047007000400800002083DE1B4366
:10111800124AD36803F00303D068C0F30310013008
:10112800032B11D00E4BB3FBF0F30C4AD068C0F37D
:10113800062000FB03F0094BDB68C3F3416301336E
:101148005B00B0FBF3F07047064BB3FBF0F3D068DD
:10115800C0F3062000FB03F0EDE700BF00100240DB
:101168000024F40000127A00002800F05E8270B5B6
:1011780082B00446036813F0010F37D0B44A93686D
:1011880003F00C03D26802F003020C2B23D0082BC7
:1011980023D06368B3F5803F4ED0B3F5A02F51D06C
:1011A800AB4B1A6822F480321A601A6822F4802243
:1011B8001A606368002B52D0FFF76CF80546A44B01
:1011C8001B6813F4003F11D1FFF764F8401B642833
:1011D800F5D9032032E2032AD9D19D4B1B6813F4B9
:1011E800003F03D06368002B00F02182236813F0CE
:1011F800020F5DD0964A936803F00C03D26802F0A0
:1012080003020C2B3AD0042B3AD0E368002B75D09C
:101218008F4A136843F480731360FFF73BF8054661
:101228008B4B1B6813F4806F5FD1FFF733F8401BBB
:101238000228F5D9032001E2854A136843F4803374
:101248001360B6E703F18043A3F53C331A6842F410
:1012580080221A601A6842F480321A60A9E7FFF700
:1012680019F805467A4B1B6813F4003FBED0FFF708
:1012780011F8401B6428F5D90320DFE1022AC2D106
:10128800734B1B6813F4806F03D0E368002B00F0E6
:10129800D0816F4A536823F0FE43216943EA016312
:1012A80053606C4B1868FEF7B3FF002840F0C38109
:1012B800236813F0080F4CD063699BB3644AD2F8D3
:1012C800943043F00103C2F89430FEF7E3FF05467B
:1012D8005F4BD3F8943013F0020F3AD1FEF7DAFFE0
:1012E800401B0228F4D90320A8E1594A536823F087
:1012F800FE43216943EA01635360D9E7544A1368FE
:1013080023F480731360FEF7C5FF0546504B1B6836
:1013180013F4806FCCD0FEF7BDFF401B0228F5D92F
:1013280003208BE14A4AD2F8943023F00103C2F833
:101338009430FEF7AFFF0546454BD3F8943013F0D1
:10134800020F06D0FEF7A6FF401B0228F4D903209F
:1013580074E1236813F0040F00F081803C4B9B6D0F
:1013680013F0805F36D13A4B9A6D42F080529A65FD
:101378009B6D03F080530193019B0125364B1B683D
:1013880013F4807F28D0A368012B39D0052B3FD0D8
:101398002F4BD3F8902022F00102C3F89020D3F805
:1013A800902022F00402C3F89020A368002B3DD0BF
:1013B800FEF770FF0646264BD3F8903013F0020F65
:1013C8004CD1FEF767FF801B41F288339842F2D96F
:1013D800032033E10025D1E71F4A136843F48073E3
:1013E8001360FEF757FF06461B4B1B6813F4807FFC
:1013F800C9D1FEF74FFF801B0228F5D903201DE154
:10140800134AD2F8903043F00103C2F89030CCE789
:101418000F4BD3F8902042F00402C3F89020D3F881
:10142800902042F00102C3F89020BEE7FEF732FF99
:101438000646074BD3F8903013F0020F0ED0FEF794
:1014480029FF801B41F288339842F2D90320F5E046
:10145800001002400400002000700040E5B9236835
:1014680013F0200F35D0A369E3B1774AD2F898304A
:1014780043F00103C2F89830FEF70CFF0546724BA3
:10148800D3F8983013F0020F23D1FEF703FF401B67
:101498000228F4D90320D1E06B4A936D23F08053DE
:1014A8009365DCE7684AD2F8983023F00103C2F864
:1014B8009830FEF7EFFE0546634BD3F8983013F0EB
:1014C800020F06D0FEF7E6FE401B0228F4D90320DF
:1014D800B4E0E369002B00F0B0805B4A926802F048
:1014E8000C020C2A69D0022B1DD0574B1A6822F027
:1014F80080721A60DA6822F00302DA60DA6822F091
:10150800887222F48032DA60FEF7C4FE04464E4B3D
:101518001B6813F0007F4ED0FEF7BCFE001B0228AC
:10152800F5D903208AE0484A136823F080731360D2
:10153800FEF7B0FE0546444B1B6813F0007F06D04B
:10154800FEF7A8FE401B0228F5D9032076E03E4AA4
:10155800D3683E491940236A606A013843EA001398
:10156800A06A43EA0023206B4008013843EA40534D
:10157800606B4008013843EA4063E06A43EAC063AD
:101588000B43D360136843F080731360D36843F050
:101598008073D360FEF77EFE04462B4B1B6813F066
:1015A800007F06D1FEF776FE001B0228F5D903203E
:1015B80044E0002042E0002040E0012B40D0224BD4
:1015C800DB6803F00301226A914201D0012035E073
:1015D80003F0F002616A0139B2EB011F01D001206A
:1015E8002CE003F4FE42A16AB2EB012F01D00120E6
:1015F80024E003F07842E16AB2EBC16F01D0012028
:101608001CE003F4C001226B5208013AB1EB425FBF
:1016180001D0012012E003F0C063626B5208013A66
:10162800B3EB426F0ED0012008E001207047012083
:1016380004E0012002E0012000E0002002B070BDBB
:101648000120FBE70020F9E7001002400C809F0111
:101658001E4B9B6803F00C03042B33D01B4B9B6879
:1016680003F00C03082B2FD0184B9B6803F00C03D6
:101678000C2B01D000207047144BDA6802F00302EB
:10168800DB68C3F303130133032A11D11048B0FBFD
:10169800F3F30E4AD068C0F3062000FB03F00B4BAF
:1016A800DB68C3F3416301335B00B0FBF3F07047C1
:1016B8000848B0FBF3F3054AD068C0F3062000FBE6
:1016C80003F0ECE7034870470148704700100240F8
:1016D80000127A000024F400002800F0EA80F8B52F
:1016E8000446764B1B6803F00F038B420CD2734AF7
:1016F800136823F00F030B431360136803F00F0301
:101708008B4201D00120B3E00D46236813F0010F8E
:1017180061D06368032B15D0022B33D0684B1B684C
:1017280013F4806F00F0C780FFF792FF654B984273
:1017380035D9634A936823F0F00343F0800393603C
:1017480080272DE05E4B1B6813F0007F01D101203C
:101758008EE0FFF7DDFC5B4B98421AD9584B9B682B
:1017680013F0F00F05D0236813F0020F13D0A3680D
:101778009BB9534A936823F0F00343F080039360C6
:1017880080270DE04E4B1B6813F4003FCCD101209D
:101798006EE0002704E0002702E0002700E00027B1
:1017A800474A936823F0030361680B439360FEF78D
:1017B80071FD0646424B9B6803F00C036268B3EB6D
:1017C800820F09D0FEF766FD801B41F288339842EC
:1017D800F0D903204CE00027236813F0020F48D00B
:1017E80013F0040F04D0364A936843F4E06393601F
:1017F800236813F0080F06D0314A936823F47C530A
:1018080043F4E06393602E4A936823F0F003A168E1
:101818000B439360294B1B6803F00F03AB4230D88E
:10182800236813F0040F06D0254A936823F4E06375
:10183800E1680B439360236813F0080F07D0204A30
:10184800936823F46053216943EAC1039360FFF767
:10185800FFFE1B4B9B68C3F303131B4AD35C03F0C7
:101868001F03D840194B1860194B1868FEF7D0FCB5
:10187800F8BD002FCED0124A936823F0F00393608E
:10188800C8E70E4A136823F00F032B431360FEF7D3
:1018980001FD0646094B1B6803F00F03AB42BFD09E
:1018A800FEF7F8FC801B41F288339842F2D90320F6
:1018B800DEE7012070470120DAE700BF0020024080
:1018C8000010024000B4C40444340008080000209A
:1018D80004000020F0B583B00446036813F4002F19
:1018E80069D0B34B9B6D13F0805F1ED1B04B9A6DDE
:1018F80042F080529A659B6D03F080530193019BDF
:101908000126AC4A136843F480731360FEF7C2FCE7
:101918000546A84B1B6813F4807F08D1FEF7BAFC74
:10192800401B0228F5D9032502E00026E9E7002537
:1019380045BB9F4BD3F8903013F4407315D0226CFD
:101948009A4212D09A4AD2F8903023F44073D2F8CF
:10195800901041F48031C2F89010D2F8901021F420
:101968008031C2F89010C2F8903013F0010F10D1F6
:1019780045B98F4AD2F8903023F44073216C0B4359
:10198800C2F89030C6B18A4A936D23F080539365AC
:1019980012E0FEF77FFC0746854BD3F8903013F032
:1019A800020FE5D1FEF776FCC01B41F2883398425E
:1019B800F2D90325DCE70025236813F0010F08D0CE
:1019C8007B4AD2F8883023F0030361680B43C2F8DE
:1019D8008830236813F0020F08D0754AD2F888308F
:1019E80023F00C03A1680B43C2F88830236813F076
:1019F800040F08D06E4AD2F8883023F03003E1682B
:101A08000B43C2F88830236813F0080F08D0684ADF
:101A1800D2F8883023F0C00321690B43C2F888301C
:101A2800236813F0200F08D0614AD2F8883023F4D5
:101A3800406361690B43C2F88830236813F0400F94
:101A480008D05B4AD2F8883023F44053A1690B438D
:101A5800C2F88830236813F0800F08D0544AD2F8AF
:101A6800883023F44043E1690B43C2F88830236887
:101A780013F4807F08D04E4AD2F8883023F44033DC
:101A8800216A0B43C2F88830236813F4007F08D01A
:101A9800474AD2F8883023F44023616A0B43C2F8DE
:101AA8008830236813F4806F0CD0414AD2F888300C
:101AB80023F44013A16A0B43C2F88830A36AB3F534
:101AC800801F57D0236813F4006F0CD0384AD2F81F
:101AD800883023F44003E16A0B43C2F88830E36A94
:101AE800B3F5800F4BD0236813F4805F0CD0304AD5
:101AF800D2F8883023F04073216B0B43C2F888304A
:101B0800236BB3F1807F3FD0236813F4005F0CD0C0
:101B1800274AD2F8883023F04063616B0B43C2F840
:101B28008830636BB3F1006F33D0236813F4804FB0
:101B38000CD01F4AD2F8883023F04063A16B0B43C6
:101B4800C2F88830A36BB3F1006F27D0236813F471
:101B5800004F0CD0164AD2F8883023F04053E16B7E
:101B68000B43C2F88830E36BB3F1805F1BD0284683
:101B780003B0F0BDD36843F48013D360A2E7D36801
:101B880043F48013D360AEE7D36843F48013D36083
:101B9800BAE7D36843F48013D360C6E7D36843F445
:101BA8008013D360D2E7D36843F48033D360DEE791
:101BB800001002400070004030B4036A23F00103B3
:101BC8000362036A4468826922F4803222F0730255
:101BD8000D682A4323F002038D682B431C4DA8424D
:101BE8000FD005F50065A8420BD005F54065A84261
:101BF80007D005F58065A84203D005F58065A842A1
:101C080005D123F00803CD682B4323F00403104DBE
:101C1800A8420FD005F50065A8420BD005F5406530
:101C2800A84207D005F58065A84203D005F5806570
:101C3800A84205D124F440754C692C438D692C4386
:101C4800446082614A684263036230BC704700BFE7
:101C5800002C014030B4036A23F480730362036AE2
:101C68004468C26922F4803222F073020D682A4364
:101C780023F400738D6843EA0523184DA84203D066
:101C880005F50065A84206D123F40063CD6843EA50
:101C9800052323F48063114DA8420FD005F5006594
:101CA800A8420BD005F54065A84207D005F5806528
:101CB800A84203D005F58065A84207D124F4405412
:101CC8004D6944EA05148D6944EA05144460C2610B
:101CD8004A68C263036230BC704700BF002C0140F1
:101CE80030B4036A23F480530362036A4468C26908
:101CF80022F0807222F4E6420D6842EA052223F4BB
:101D080000538D6843EA0533174DA84203D005F503
:101D18000065A84206D123F40043CD6843EA0533A1
:101D280023F48043104DA8420FD005F50065A84262
:101D38000BD005F54065A84207D005F58065A84297
:101D480003D005F58065A84207D124F440444D69C5
:101D580044EA85148D6944EA85144460C2614A687E
:101D68000264036230BC7047002C014030B4036A3F
:101D780023F480330362036A4468026D22F48032DC
:101D880022F070020D682A4323F400338D6843EA79
:101D980005430F4DA8420FD005F50065A8420BD0AA
:101DA80005F54065A84207D005F58065A84203D02F
:101DB80005F58065A84204D124F480344D6944EACD
:101DC8000524446002654A688264036230BC704737
:101DD800002C014030B4036A23F480130362036AC1
:101DE8004468026D22F0807222F4E0420D6842EAF3
:101DF800052223F400138D6843EA05530F4DA842CA
:101E08000FD005F50065A8420BD005F54065A8423E
:101E180007D005F58065A84203D005F58065A8427E
:101E280004D124F480244D6944EA85244460026581
:101E38004A68C264036230BC704700BF002C01408E
:101E480010B4036A046A24F001040462846924F06B
:101E5800F00444EA021223F00A030B43826103628E
:101E680010BC704710B4036A23F01003036284693E
:101E7800036A24F4704444EA023223F0A00343EADC
:101E880001138261036210BC7047836823F4401316
:101E980023F07003194341F0070181607047000087
:101EA80090F83D30DBB2012B01D0012070470223AE
:101EB80080F83D3002689168084B0B40062B08D02B
:101EC800B3F5803F07D0136843F001031360002087
:101ED8007047002070470020704700BF07000100CE
:101EE80090F83D30DBB2012B01D00120704702236E
:101EF80080F83D300268D36843F00103D36002687C
:101F08009168084B0B40062B08D0B3F5803F07D0EB
:101F1800136843F0010313600020704700207047E6
:101F280000207047070001007047704770477047EE
:101F3800704710B5044603681A6912F0020F12D0F0
:101F4800DA6812F0020F0ED06FF002021A61012354
:101F5800037703689B6913F0030F00F09F80FFF776
:101F6800E5FF0023237723681A6912F0040F13D0C2
:101F7800DA6812F0040F0FD06FF004021A6102231E
:101F8800237723689B6913F4407F00F08D802046F7
:101F9800FFF7CCFF0023237723681A6912F0080F94
:101FA80012D0DA6812F0080F0ED06FF008021A612A
:101FB800042323772368DB6913F0030F7BD02046C3
:101FC800FFF7B4FF0023237723681A6912F0100F74
:101FD80012D0DA6812F0100F0ED06FF010021A61EA
:101FE800082323772368DB6913F4407F6AD02046EF
:101FF800FFF79CFF0023237723681A6912F0010F6B
:1020080003D0DA6812F0010F63D123681A6912F05D
:10201800800F03D0DA6812F0800F61D123681A6943
:1020280012F4807F03D0DA6812F0800F5FD1236842
:102038001A6912F0400F03D0DA6812F0400F5DD130
:1020480023681A6912F0200F03D0DA6812F0200F03
:102058005BD123681A6912F4801F03D0DA6812F47E
:10206800801F59D123681A6912F4001F03D0DA6857
:1020780012F4001F57D123681A6912F4800F03D095
:10208800DA6812F4800F55D123681A6912F4000F28
:1020980003D0DA6812F4000F53D110BDFFF745FFE3
:1020A8002046FFF744FF5CE72046FFF73EFF204647
:1020B800FFF73DFF6EE72046FFF737FF2046FFF7A3
:1020C80036FF7FE72046FFF730FF2046FFF72FFF58
:1020D80090E76FF001021A61204600F0A3FE94E732
:1020E8006FF080021A61204600F057FB96E76FF404
:1020F80080721A61204600F051FB98E76FF04002A9
:102108001A612046FFF714FF9AE76FF020021A6160
:10211800204600F041FB9CE76FF480121A612046CC
:1021280000F03DFB9EE76FF400121A61204600F0B4
:1021380037FBA0E76FF480021A61204600F031FBFC
:10214800A2E76FF400021A61204600F02BFBA4E717
:1021580003682C4A90420ED0B0F1804F0BD0A2F504
:102168009432904207D002F58062904203D002F583
:102178009632904203D123F070034A681343214AF0
:1021880090421AD0B0F1804F17D0A2F59432904205
:1021980013D002F5806290420FD002F59632904239
:1021A8000BD002F54062904207D002F5806290425F
:1021B80003D002F58062904203D123F44073CA68C9
:1021C800134323F080034A69134303608B68C36297
:1021D8000B6883620B4B98420FD003F5006398425B
:1021E8000BD003F54063984207D003F5806398420B
:1021F80003D003F58063984201D10B69036301237F
:1022080043617047002C014058B310B5044690F85C
:102218003D300BB3022384F83D30211D2068FFF7C1
:1022280097FF012384F8483084F83E3084F83F3023
:1022380084F8403084F8413084F8423084F84330E0
:1022480084F8443084F8453084F8463084F84730C0
:1022580084F83D30002010BD80F83C3000F0F2FEDC
:10226800D8E70120704758B310B5044690F83D30C0
:102278000BB3022384F83D30211D2068FFF768FF67
:10228800012384F8483084F83E3084F83F3084F8DD
:10229800403084F8413084F8423084F8433084F880
:1022A800443084F8453084F8463084F8473084F860
:1022B8003D30002010BD80F83C30FFF735FED8E7F0
:1022C80001207047002853D0F8B504460D4690F811
:1022D8003D30002B47D0022384F83D30214651F889
:1022E800042B936823F4A03323F00703936020683A
:1022F800FFF72EFF21688A688E690F6A28681043E5
:1023080026F4407626F00306AA68AB6942EA03235E
:10231800334323F47C4323F0FC03EE68EA6946EA7E
:1023280002261E432A6A13032A6943EA0213334327
:1023380027F0AA076A686D6942EA05123A4388607D
:1023480021688B6123681A62012384F8483084F875
:102358003E3084F83F3084F8443084F8453084F8BF
:102368003D300020F8BD80F83C3000F0ABFEB2E70D
:102378000120704730B4036A23F010030362036A34
:102388004468826922F0807222F4E6420D6842EACB
:10239800052223F020038D6843EA0513174DA84250
:1023A80003D005F50065A84206D123F08003CD6867
:1023B80043EA051323F04003104DA8420FD005F55A
:1023C8000065A8420BD005F54065A84207D005F581
:1023D8008065A84203D005F58065A84207D124F49A
:1023E80040644D6944EA85048D6944EA8504446083
:1023F80082614A688263036230BC7047002C0140E6
:1024080038B590F83C30012B00F08C800D4604461E
:10241800012380F83C30142A1ED8DFE802F00B1D97
:102428001D1D211D1D1D351D1D1D481D1D1D5C1D4E
:102438001D1D6F000068FFF7BFFB2268936943F01A
:10244800080393612268936923F004039361226867
:10245800936929690B439361002084F83C0038BDD7
:102468000068FFF787FF2268936943F4006393616C
:102478002268936923F480639361226893692969C8
:1024880043EA01239361E7E70068FFF7E3FB22686B
:10249800D36943F00803D3612268D36923F00403A6
:1024A800D3612268D36929690B43D361D4E70068F3
:1024B800FFF716FC2268D36943F40063D3612268EE
:1024C800D36923F48063D3612268D369296943EA15
:1024D8000123D361C0E70068FFF748FC2268136D49
:1024E80043F0080313652268136D23F00403136592
:1024F8002268136D29690B431365ADE70068FFF780
:1025080069FC2268136D43F4006313652268136D38
:1025180023F4806313652268136D296943EA012354
:10252800136599E702209AE710B4846824F47F447D
:1025380042EA03230B432343836010BC7047000027
:1025480090F83C30012B77D010B50446012380F871
:102558003C30022380F83D3002689068374B0340D6
:1025680093600B68702B41D01DD8302B16D00FD933
:10257800502B4DD0602B55D0402B42D1CA684968AA
:102588002068FFF75DFC40212068FFF77EFC38E0FB
:10259800102B03D0202B01D0002B32D119462068F4
:1025A800FFF773FC2DE0264A9342F7D014D8B3F115
:1025B800101FF3D0103A9342F0D0B3F5005F20D14A
:1025C800CB684A6889682068FFF7AEFF226893687D
:1025D80043F48043936014E01A4A9342DED01032E9
:1025E8009342DBD0303A93420BD1D7E7CB684A68A5
:1025F80089682068FFF798FF2268936843F077039B
:102608009360012384F83D30002084F83C0010BD1D
:10261800CA6849682068FFF713FC50212068FFF753
:1026280034FCEEE7CA6849682068FFF71BFC6021A4
:102638002068FFF72AFCE4E7022070478800CEFFF5
:10264800300010006000100090F83C30012B40D0A2
:1026580030B4012380F83C30022380F83D30026812
:10266800536895681C4CA24203D004F50064A2424A
:1026780003D123F470034C68234323F0007323F041
:1026880070030C68234353600368134A934212D0C3
:10269800B3F1804F0FD0A2F5943293420BD002F5DC
:1026A8008062934207D002F59632934203D002F536
:1026B8004062934204D125F080058A6815439D60E5
:1026C800012380F83D30002380F83C30184630BCA8
:1026D80070470220704700BF002C014090F83C3042
:1026E800012B54D010B4012380F83C30CB6823F47C
:1026F80040738A68134323F480634A68134323F4BE
:1027080000630A68134323F480530A69134323F4CC
:1027180000534A69134323F480430A6B134323F499
:1027280070238A6943EA024302681A4CA24203D022
:1027380004F50064A24203D123F08053CC692343FB
:10274800144CA2420AD004F50064A24206D0536495
:10275800002380F83C30184610BC704723F47003FF
:102768008C6A43EA045323F080730C6A234323F0F2
:1027780000734C6A2343074CA24203D004F500645B
:10278800A242E4D123F00053C96A0B43DFE70220D9
:10279800704700BF002C0140704770477047704772
:1027A800704770477047000010B58CB0002409943A
:1027B8000A940B942022214601A800F0F1FD20483C
:1027C8004FF0A043036044608460C46004614461C6
:1027D80004238361047701234377036280F824404C
:1027E800C462046380F838404FF48053C36380F8B0
:1027F8004040FDF755FDD0B90CA9002341F80C3D28
:102808000F48FEF785F9A8B90E4B019306230293EA
:10281800002303937F2204920422059206930DEB72
:1028280002010748FDF766FE38B90CB010BD00F08C
:102838007DF9E1E700F07AF9E6E700F077F9F4E7E7
:102848006C0100200008302E10B588B000230393D7
:1028580004930593069307930368B3F1A04F01D03F
:1028680008B010BD03F1704303F50433DA6C42F489
:102878000052DA64DA6C02F400520092009ADA6CC0
:1028880042F00102DA64DA6C02F001020192019A64
:10289800DA6C42F00202DA64DB6C03F002030293A2
:1028A800029B012303930324049403A94FF090404F
:1028B800FEF728FA41F201030393049400230593D9
:1028C80003A90248FEF71EFACAE700BF0004004841
:1028D80070B50B4D40212846FEF7E4FA06468021E4
:1028E8002846FEF7DFFA04464FF480712846FEF7C3
:1028F800D9FA640044EA860464B22043C0B270BDC9
:10290800000400482DE9F0438BB000240594069498
:10291800079408940994464BDA6C42F00402DA648E
:10292800DA6C02F004020192019ADA6C42F0200299
:10293800DA64DA6C02F020020292029ADA6C42F04F
:102948000102DA64DA6C02F001020392039ADA6C8B
:1029580042F00202DA64DB6C03F002030493049B86
:10296800344F224640213846FEF7A3FA324D22461C
:1029780020212846FEF79DFA012605964FF0030808
:10298800CDF81880079405A94FF09040FEF7BAF9E2
:102998004FF01009CDF814900694079405A94FF04C
:1029A8009040FEF7AFF9CDF814900694079405A966
:1029B8003846FEF7A7F94FF4106305930694079479
:1029C80005A92846FEF79EF94FF4A0430593CDF8D4
:1029D8001880079405A92846FEF794F94023059323
:1029E80006960794089405A93846FEF78BF94FF424
:1029F80000430593114B06930223079305A94FF053
:102A08009040FEF77FF920230593069607940894D3
:102A180005A92846FEF776F9224621462820FEF722
:102A280019F92820FEF74AF90BB0BDE8F08300BF7A
:102A3800001002400008004800040048000031105F
:102A480070B5A4B03822002116A800F0A9FC002413
:102A580011941294139414941594442221466846B0
:102A680000F09EFC4FF40070FEF7CCFA0125169595
:102A78004FF48033179302231D9303261E961F9548
:102A88001022209221932293239316A8FEF76CFB21
:102A98000F231193129680231393149415942946A7
:102AA80011A8FEF719FE4FF4004300934FF00053AE
:102AB8000F936846FEF70EFF24B070BD10B5FDF702
:102AC800CDFBFFF7BDFFFFF71DFF00F0CDF800F0CD
:102AD800E3F800F0F9F800F07DFB00F02FFA00F0C1
:102AE80061FAFFF761FE00F085FA0B48FFF7D8F9A5
:102AF8000A4C2046FFF7D4F90948FDF78DFF09482D
:102B0800FFF7EEF90848FFF7CBF92268536C43F456
:102B180000435364FEE700BF8C020020240300201A
:102B28006C010020D80200207003002070470000CC
:102B380030B583B0484C236801332360FFF7C8FEE3
:102B4800464D2870A388A3F2B2331BB2A279D2B241
:102B5800511CC9B2A17102F00F0204EB42021381A9
:102B6800A26A1344A3625023ADF806302B78DBB277
:102B78003B4AD25CBDF806301BB2002B69DD02234C
:102B88001A44374B1A44127A8DF80520BDF80620EE
:102B980012B2002AB8BF52420A2AB8BF0A22962A9D
:102BA800A8BF96229DF8051003EB4101898A21F4FC
:102BB8002A6121F00A0188B29DF8051001EB410154
:102BC8008C001C44A16A00250D609DF8051001EBDE
:102BD80041018C001C44216A0D609DF8051001EB31
:102BE80041018C001C44616A0D609DF8051001EBE1
:102BF80041018C001C44216A92B20A609DF80510BC
:102C080001EB41018C0023445B6A1A60154B186282
:102C1800114B93F82C20D2B2104B1B78DBB29A429E
:102C28000FD00D4A92F82D30DBB2591CC9B282F888
:102C38002D1003F07F0309490978C9B2134483F8BA
:102C48003010064B1B78DBB2034A82F82C3003B0F5
:102C580030BD052394E700BF2C0000202800002089
:102C6800D0330008002C014008B50948094B03601F
:102C7800002343608360C360036103758361C3629B
:102C8800FEF72AF900B908BDFFF750FFFBE700BFC0
:102C9800500200200003014008B50948094B0360B1
:102CA800002343608360C360036103758361C3626B
:102CB800FEF712F900B908BDFFF738FFFBE700BFC0
:102CC800D80100200403014008B50948094B0360F6
:102CD800002343608360C36004220261037583613B
:102CE800C362FEF7F9F800B908BDFFF71FFFFBE75D
:102CF800140200200803014000B589B000230393A3
:102D080004930593069307930368244A934208D0D3
:102D1800234A934219D0234A93422AD009B05DF836
:102D280004FB214BDA6C42F00102DA64DB6C03F03D
:102D380001030093009B0E2303930323049303A929
:102D48004FF09040FDF7DEFFE8E7174BDA6C42F0F2
:102D58000102DA64DB6C03F001030193019BE023B9
:102D680003930323049303A94FF09040FDF7CAFF90
:102D7800D4E70D4BDA6C42F00202DA64DB6C03F044
:102D880002030293029B42F2060303930323049374
:102D980003A90648FDF7B6FFC0E700BF00030140DE
:102DA80004030140080301400010024000040048E9
:102DB80082B00D4B1A6E42F001021A661A6E02F0CA
:102DC80001020092009A9A6D42F080529A659B6DBA
:102DD80003F080530193019B044A936843F48043B2
:102DE800936002B0704700BF0010024000700040BE
:102DF8007047FEE7FEE7FEE7FEE77047704770475B
:102E080008B5FDF73BFA08BD08B54FF40040FEF7DA
:102E180055F808BD08B50248FFF78BF808BD00BF94
:102E2800D802002008B503680D4A934200D008BDB7
:102E38001A6912F4005F04D06FF400521A61036833
:102E48001B69084B1B785BB2002B06DD054A13781B
:102E58005BB2013B5BB21370E9E7FFF769FEE6E797
:102E680000100040E0000020B0F5004F00D070478F
:102E780000B583B04FF400414FF09040FEF712F8D0
:102E8800274B1B685B6A9BB2ADF80630254B5B7815
:102E9800DBB2012B09D0234B5B780BB9012838D062
:102EA800204B587003B05DF804FB0028F3D1BDF83F
:102EB800062092B21B4B5B889BB29A421FD3BDF887
:102EC8000630184A52889B1A9BB2174A1380154B32
:102ED8001B79DBB23F2BE3D8BDF806309BB2002B41
:102EE800DED0104A13790133DBB2137103F03F03CC
:102EF800BDF8061089B202EB43031981D0E7BDF88B
:102F08000630084A52889B1A013B9BB2064A138036
:102F1800DDE7BDF806309BB2024A5380C0E700BF28
:102F280070030020E000002030000020024B4FF02A
:102F380000629A60704700BF00ED00E000B58DB0F8
:102F48002022002104A800F02BFA0023009301930B
:102F580002931248124A0260436083604FF6FF7280
:102F6800C2600361836103230393012305930993DB
:102F780003A9FFF7A7F950B9002300930293694604
:102F88000648FFF761FB28B90DB05DF804FBFFF7B1
:102F9800CDFDF1E7FFF7CAFDF6E700BF8C02002080
:102FA8000008004000B585B0002301930293039305
:102FB8000E480F4A02605022426083602122C2609C
:102FC8008361FFF721F950B900230193039301A905
:102FD8000648FFF739FB28B905B05DF804FBFFF791
:102FE800A5FDF1E7FFF7A2FDF6E700BFD802002034
:102FF8000010004000B585B00023019302930393AD
:103008000E480F4A02602022426083604FF6FF722A
:10301800C2608361FFF7F8F850B900230193039366
:1030280001A90648FFF710FB28B905B05DF804FBB5
:10303800FFF77CFDF1E7FFF779FDF6E77003002065
:103048000014004000B585B003681A4A934208D0BE
:10305800194A934210D0194A934220D005B05DF81E
:1030680004FB174B1A6E42F400621A661B6E03F4D7
:1030780000630193019BF1E7114B9A6D42F0100236
:103088009A659B6D03F010030293029B0022114680
:103098003620FDF7DFFD3620FDF710FEDEE7084B92
:1030A8009A6D42F020029A659B6D03F0200303930A
:1030B800039BD3E7002C014000100040001400409F
:1030C8000010024000B589B00023039304930593D0
:1030D800069307930268124B9A4202D009B05DF832
:1030E80004FB03F502339A6D42F004029A659A6D67
:1030F80002F004020192019ADA6C42F00202DA64E8
:10310800DB6C03F002030293029BC02303930223A8
:103118000493079303A90348FDF7F4FDDEE700BF16
:10312800000800400004004870B588B000230393ED
:1031380004930593069307930268234B9A4201D0A0
:1031480008B070BD03F56443DA6C42F00402DA6437
:10315800DA6C02F004020092009ADA6C42F0020281
:10316800DA64DA6C02F002020192019ADA6C42F037
:103178000102DA64DB6C03F001030293029B4FF453
:1031880000530393022504950426079603A90F48C4
:10319800FDF7B8FD4FF4004303930495002405940C
:1031A8000694079603A90A48FDF7ACFD4FF4B853F7
:1031B80003930495059406940623079303A94FF0F7
:1031C8009040FDF79FFDBBE7002C01400008004838
:1031D8000004004810B59CB00024189419941A945F
:1031E8001B941594169417940E940F94109411949C
:1031F8001294139414943422214601A800F0D0F8B4
:103208003E483F4B0360082343608460FF23C3604C
:10321800046144618461FEF7F7FF002855D11CA9B9
:103228004FF4805341F8103D3448FFF789F90028DE
:103238004ED13248FFF717F800284CD100231593D8
:103248001693179315A92D48FFF7FEF9002845D1C5
:1032580060230E9300220F921092119212921392F1
:1032680014920EA92548FFF7CBF8002839D100237E
:103278000F9304220EA92148FFF7C2F8002833D182
:1032880000230F9308220EA91C48FFF7B9F870BB5A
:1032980000230193029303930122049205934FF4B0
:1032A800005206920793089309930A930B930C9381
:1032B8004FF480430D9301A91048FFF70FFAC8B9DE
:1032C8000E48FFF731FF1CB010BDFFF72FFCA6E733
:1032D800FFF72CFCADE7FFF729FCAFE7FFF726FC6B
:1032E800B6E7FFF723FCC2E7FFF720FCC8E7FFF7C4
:1032F8001DFCCDE7FFF71AFCE2E700BF240300201E
:10330800002C01400D4885460D480E490E4A002301
:1033180002E0D458C4500433C4188C42F9D30B4A81
:103328000B4C002301E013600432A242FBD3FFF7E9
:10333800FDFD00F011F8FFF7C1FBFEE7008000205B
:10334800000000200C000020643400080C0000205D
:10335800BC030020FEE7000070B50D4E0D4CA41B09
:10336800A4100025A54209D10B4E0C4C00F020F802
:10337800A41BA4100025A54205D170BD56F8253020
:1033880098470135EEE756F8253098470135F2E7BA
:103398005C3400085C3400085C34000860340008C1
:1033A80002440346934200D1704703F8011BF9E732
:1033B800F8B500BFF8BC08BC9E467047F8B500BF1A
:0833C800F8BC08BC9E467047EA
:1033D00004000302050002010001020304050001CC
:1033E000020304051004140004014001410001041B
:1033F000382C01403C2C0140342C0140382C014039
:10340000342C01403C2C01403C2C0140342C014028
:10341000382C01403C2C0140382C0140342C014018
:10342000342C0140382C01403C2C0140342C01400C
:103430003C2C0140382C0140342C0140382C0140F8
:103440003C2C0140000000000000000001020304C9
:0C34500006070809000000000102030448
:04345C00FD01000866
:04346000D901000886
:0C34640001000000100000000024F40033
:040000050800330DAF
:00000001FF
